:020000040800F2
:10000000C01E002075990008490B00084B0B000822
:100010004D0B00084F0B0008510B000800000000BA
:10002000000000000000000000000000530B00086A
:10003000550B000800000000570B0008590B000882
:100040008F9900088F9900088F9900088F990008F0
:100050008F9900088F9900088F9900088F990008E0
:100060008F990008895A00088F9900088F99000815
:100070008F9900088F9900088F9900088F990008C0
:100080008F9900088F9900088F9900088F990008B0
:100090008F9900088F9900088F9900086D5C0008FF
:1000A0008F9900088F9900088F9900088F99000890
:1000B00079970008FB9500088F9900088F99000830
:1000C0008F9900088F9900088F9900088F99000870
:1000D0008F990008099900088F9900088F990008E6
:1000E0008F9900088F9900088F9900088F99000850
:1000F0008F9900088F9900088F9900088F99000840
:100100008F9900088F9900088F9900088F9900082F
:100110008F9900088F9900088F9900088F9900081F
:100120008F9900088F9900088F9900088F9900080F
:1001300000F002F800F062F80AA090E8000C824497
:100140008344AAF10107DA4501D100F057F8AFF274
:10015000090EBAE80F0013F0010F18BFFB1A43F0A5
:10016000010318476CFD00008CFD00000A444FF0AD
:10017000000C10F8013B13F0070408BF10F8014B06
:100180001D1108BF10F8015B641E05D010F8016B4B
:10019000641E01F8016BF9D113F0080F1EBF10F8AF
:1001A000014BAD1C0C1B09D16D1E58BF01F801CBD2
:1001B000FAD505E014F8016B01F8016B6D1EF9D555
:1001C0009142D6D37047000000230024002500266A
:1001D000103A28BF78C1FBD8520728BF30C148BFAA
:1001E0000B60704764290BF0718378290BF0AA83A8
:1001F000002070471FB51FBD10B510BD0BF0FEFDF0
:100200001146FFF7F7FF00F0E9F80BF01CFE03B40E
:10021000FFF7F2FF03BC09F021FB00007CB50020D2
:1002200001F017FB0020014600904FF47843F8A23C
:10023000142005F0ECF81824FAA0CDE900404FF4A2
:10024000C87523462A4621210F2005F072F8FBA02D
:10025000CDE9004018234FF416723C210F2005F021
:1002600068F8FCA0CDE900401823C82254210F20D3
:1002700005F05FF8FBA0CDE9004018232A466C2169
:100280000F2005F056F8FDA0CDE9004018232A46BE
:1002900096210F2005F04DF87CBD7CB500F0B2FC36
:1002A00009F090FA642009F0BBFA4FF4E1342046DB
:1002B00009F0DEFA00F00CFD00F02DFD204609F0FB
:1002C000D7FAF0494FF478400880642009F0A8FA82
:1002D000642009F0A5FA05F091F9642009F0A0FA6C
:1002E00005F063FC08F039FF642009F099FA002159
:1002F000E54809F013FA41F61F41632009F050F96F
:1003000000F026FD05F0D7FA044618254FF47A765A
:100310000EE0DEA00BF0A6FAE2A0CDE90050182313
:10032000F02238210F2005F004F8304609F078FA61
:10033000002005F007FE0028EBD112E0DEA00BF054
:1003400091FA2146DEA00BF08DFAE0A0CDE9005035
:100350001823F0223821322004F0EBFF304609F058
:100360005FFA032CEAD10025102415E00A2009F0D9
:1003700057FADBA0CDE900401023C8228221462095
:1003800004F0D7FFC82009F04BFA9223EF22822114
:100390001E20009504F07FFD07F060FF0028E5D1E6
:1003A000D34AD449D44805F0F5FDD2480122802132
:1003B000001F0AF07DFFD148016841F4807101609F
:1003C0000721002005F0D3F9002005F0BBFAFFF764
:1003D00025FFBDE87C40642009F022BA08B5FFF78C
:1003E0005CFF01250226C64C03274FF004084FF09E
:1003F00005094FF00C0A607806280FD2DFE800F0FC
:100400000E030507090C257008E0267006E027702A
:1004100004E084F8008001E084F80090CDF800A0AA
:10042000227801239621642004F0D3FEE3E7000242
:1004300000127047F8B5B24D0024AC82EC70B148A0
:1004400001784278090441EA02218278A84E1143DA
:1004500028363160C1780279090441EA02214279E3
:10046000114371608179C2790904007A41EA02215D
:100470000143B1603146732005F0B7FF306800F4E6
:100480007820C0133060A870EA78AA23501CC1B24B
:10049000974883544A1CD2B24354F123511CC9B229
:1004A00083540A234A1CD2B24354511CC9B2845407
:1004B0004A1CD2B24454511CCBB28454591CC9B208
:1004C000C4544A1CD2B24454511CCBB28454591C5B
:1004D000C9B2C4544A1CD3B244548B494E88370A1B
:1004E000591CCAB2C754511CC9B2E97086546C7108
:1004F00005E0835CAE8A3344AB82521C6A716A7930
:100500008A42F6D32A7D42547B4805F074FD7F4829
:100510000470102000907E48032321210288BE2011
:1005200004F057FEF8BD10B576480178427809040A
:1005300041EA022182786E4C114328342160C1784F
:100540000279090441EA022142791143616081790B
:10055000C2790904007A41EA02210143A1602146DF
:10056000732005F06BFF206800F47820C013206032
:100570006349887065490020087010BD2DE9FC5F53
:10058000012005F011FADFF87881C8F82000D8F8CA
:1005900030100844C8F8300098F80710491CC9B258
:1005A00088F80710142932D1B0FBF1F0C8F8240004
:1005B0004FF0000988F807900CF0C4FF55490CF083
:1005C000D5FF55490CF0A8FE0CF012FE8B46824672
:1005D000524A534B0CF0FCFA06460F4654465D4611
:1005E000504659464F4A504B0CF0F2FA22462B46E1
:1005F0000CF0EEFA32463B460CF012F84B4A4C4BEC
:100600000CF00EF80BF0DAFFC8F8280092E0BFE01B
:10061000CEDECFDFD4CBB6AFB4ABB8D0C6F7BDDA41
:10062000B5E30000486561727420726174653A2018
:100630002020202020202062706D000054656D7005
:10064000657261747572653A2020202E2020204347
:100650000000000053746570206E756D6265723A1B
:100660000000000044697374616E63653A202020C5
:1006700020202020202020434D0000005461736B77
:100680003A0000005E0000203F190100313239328B
:10069000BCC4B4E6C6F7C9E8D6C3CAA7B0DC0D0A25
:1006A000000000004144533132393220696E6974D0
:1006B0003A206572726F72006572726F720000008C
:1006C00049642069732025640000000041445331CF
:1006D00032353620696E69743A206572726F720025
:1006E0004D505536303530204572726F7200000023
:1006F000780E00200438014044000240000401400C
:1007000000000020F40E0020AC080020310800207A
:100710005808002000401C45583A7E4A632C2EE9B8
:1007200083C0C6BF49D46F8DAD7AE0BE637FD93D2B
:10073000799469400CF05CFDED4AEE4B0BF070FFD4
:100740000BF03CFFC8F82C00C8F830900CF0C2FE4B
:100750001824CDE90049024602233C21A92004F0D7
:1007600075FDD8F82C0005460CF0B4FE0CF0EAFE3E
:1007700029460CF0C7FFE0490CF0F8FE0CF0AAFE89
:10078000CDE90049024602233C21CD2004F05EFD64
:10079000BDE8FC9F2DE9F05F012005F005F9DFF8C9
:1007A0005C83C8F82000D8F830100844C8F830003E
:1007B00098F80710491CC9B288F8071014295AD1B3
:1007C000B0FBF1F0C8F824004FF0000988F807905A
:1007D0000CF0B8FECA490CF0C9FECA490CF09CFDE9
:1007E0000CF006FD8B468246C74AC84B0CF0F0F968
:1007F00006460F4654465D4650465946C44AC54BC8
:100800000CF0E6F922462B460CF0E2F932463B4664
:100810000BF006FFC04AC14B0BF002FF0BF0CEFEFF
:10082000C8F828000CF0E4FCB14AB24B0BF0F8FE1B
:100830000BF0C4FE0446C8F82C00AF4D20462946F4
:100840000CF094FE0CF046FEA8F80A0020460CF0CE
:1008500041FEC0B2A8F808000CF074FE21460CF06E
:1008600051FF29460CF082FE0CF034FEC0B2A8F80D
:100870000C00C8F83090BDE8F09F7CB59F4A1C3250
:10088000911E881E08F03CFD00284AD19B4CB4F90B
:100890001810B4F91A00494300FB0011B4F91C0008
:1008A00000FB00100CF02DF90BF062FE0CF0CCF800
:1008B00000B2E0810CF02EFE6FF00D010DF001F89A
:1008C00097490CF053FE6063964908449649884264
:1008D00027D3608A218A401A0CF013F921F00041D5
:1008E0000022924B0CF072FA1BD2608A208220798F
:1008F000401CC2B22271C2EB8210A063E0630025EB
:1009000025641826CDE9006503235421B42004F0A2
:100910009DFCCDE9006504236C21B420A26B04F09A
:1009200095FC7CBD10B5754A1C32911E881E08F0DE
:10093000E7FC002837D1714CB4F91810B4F91A004B
:10094000494300FB0011B4F91C0000FB00100CF03F
:10095000D8F80BF00DFE0CF077F800B2E0810CF047
:10096000D9FD6FF00D010CF0ACFF6D490CF0FEFDF0
:1009700060636C4908446C49884214D3608A218AB8
:10098000401A0CF0BEF821F000410022674B0CF039
:100990001DFA08D2608A20822079401CC0B22071E2
:1009A000C0EB8010A06310BD2DE9F041534C002531
:1009B000E570E582FFF7B7FDFFF7ECFEFFF7B2FF4A
:1009C000E278AA23501CC1B2594883544A1CD2B2BF
:1009D0004354F123511CC9B283540A234A1CD2B296
:1009E000435454490B78511CC9B283546689330A65
:1009F0004A1CD2B24354511CCBB286542279591CA2
:100A0000C9B2C254238F1E0A4A1CD2B24654511C8A
:100A1000C9B28354484E33881F0A4A1CD2B2475485
:100A2000511CC9B2835473881E0A4A1CD2B2465460
:100A3000511CC9B2E1708354A57105E0835CE58A5D
:100A40002B44E382521CA271A2798A42F6D3A27D82
:100A50004254BDE8F041394805F0CDBA70B5FFF712
:100A600099FEFFF75FFF254C0025E570344881793A
:100A7000C2790904007A41EA022101432C48283056
:100A800081600146732005F0D9FC2A48E17803789B
:100A9000481CC2B226484354237A511CC9B283541D
:100AA000237B4A1CD2B243542379511CC9B28354CC
:100AB000268F330A4A1CD2B24354511CCBB28654FF
:100AC0001D494E88320A591CC9B2C2544A1CD2B2BE
:100AD00046540D26511CCBB286540A22591CC9B269
:100AE000E170C254154805F086FA1648057070BDCD
:100AF000CDCCCCCCCCCCF43F0000C84200000020D0
:100B000000401C45583A7E4A632C2EE983C0C6BF7C
:100B100049D46F8DAD7AE0BE637FD93D7994694049
:100B200000002041666626BF9A9981000070A740A8
:100B3000780E002058080020AC0800204400024035
:100B4000F40E0020310800207047FEE7FEE7FEE7C4
:100B5000FEE7704770477047704700000CB50022F1
:100B6000019200925248016841F4803101604FF4D3
:100B7000A063016801F4003100910199491C0191C1
:100B8000009911B901999942F3D10168890302D5FD
:100B90000121009100E000920099012930D14549DE
:100BA0000A6842F010020A600A6822F003020A6032
:100BB0000A6842F002020A6041684160416841608F
:100BC000416841F480614160416821F47C114160D9
:100BD000416841F4E8114160016841F080710160B1
:100BE00001688901FCD5416821F003014160416839
:100BF00041F0020141604168C1F381010229FAD14B
:100C00000CBDABE710B52A48016841F00101016055
:100C10004168294A114041600168284A1140016039
:100C2000016821F480210160416821F4FE014160E6
:100C30004FF41F018160FFF7E4FF21494FF000608E
:100C4000086010BD10B51A4A506800F00C011D4B29
:100C50001D4800290ED004290ED008290ED00360AB
:100C60005168194AC1F30311121D515C0268CA4050
:100C7000026010BD0360F3E70360F1E7516801F41F
:100C80007011536803F48033022404EB914133B1B3
:100C900053689B0307D50D4B59430160E0E70B4BAD
:100CA00059430160DCE7074B59430160D8E7000076
:100CB00000100240002002400000FFF8FFFFF6FE97
:100CC00008ED00E000127A004800002000093D0015
:100CD00038B50121482009F094FB2024ADF80040EC
:100CE00010208DF8030003208DF80200164D694690
:100CF000284609F080F92021284609F0EBF9ADF8E3
:100D00000040124C6946204609F075F92021204622
:100D100009F0E0F938BD38B50121082009F071FB70
:100D20004FF48074ADF8004010208DF803000320CC
:100D30008DF80200044D6946284609F05CF9214609
:100D4000284609F0C9F938BD000C014000180140DF
:100D500008B50121442009F054FB1820ADF800002B
:100D600048208DF8030069462D4809F044F9012018
:100D7000ADF8000028208DF803006946294809F0E5
:100D80003AF908BD2DE9F0410125274C002800D093
:100D900025702078234E224F78B11021384609F073
:100DA00085F988B10821384609F080F960B1012140
:100DB000304609F07BF9012806D01021384609F0A9
:100DC00075F901281DD028E00A2008F029FD00202F
:100DD00020701021384609F069F958B108213846C9
:100DE00009F064F948B10121304609F05FF90128A2
:100DF00005D012E00120BDE8F0810220FBE70320CE
:100E0000F9E70821384609F051F9012805D10121F7
:100E1000304609F04BF900B925700020EBE70000DF
:100E200000180140000801405C000020F7490880DC
:100E30007047F649891C0880704708B5F348801C44
:100E400000880090BDF8000008BDF04A1080901C9A
:100E50000180704710B5FFF7E9FF052008F0C9FCD5
:100E6000BDE81040E9E7EA48E84900890880704792
:100E7000E649891C08807047C0F34511C20AC002C8
:100E800000EB4110104480B27047401EC0B2FCD24B
:100E900070472DE9F04102460B46DD4E1F0A3046F1
:100EA000B1884089A1F513444FEA1228413C1AD079
:100EB000A1F5A644103C16D03446A1F5D04CA57936
:100EC0002488A41A641EBCF1040C1ED0A1F5C85CD1
:100ED000BCF1630C2ED0A1F5A04CBCF5A26C62D085
:100EE000012D7DD07DE0FFF7A1FF4046FFF7A1FF78
:100EF000D0B2FFF79EFFB089FFF798FF3846FFF7A3
:100F000098FFBDE8F041D8B293E7012D00D1A2B21D
:100F1000FFF78CFF100AFFF78CFFD0B2FFF789FFB5
:100F2000B089FFF783FF3846FFF783FFBDE8F04144
:100F3000D8B27EE73DB3FFF779FF4046FFF779FF70
:100F4000D0B2FFF776FF3088401EC0F30F20FFF7C6
:100F500070FF3078401EC0B2FFF76BFFB089FFF71B
:100F600065FF3846FFF765FFD8B2FFF762FF70886C
:100F7000401EC0F30F20FFF75CFFB078BDE8F041E2
:100F8000401EC0B255E7A2B2FFF750FF0020FFF7A6
:100F900050FF0020FFF74DFF100AFFF74AFFD0B2C5
:100FA000FFF747FFDAE7FFF741FF4046FFF741FF52
:100FB0007089401C80B2FFF739FFD0B2FFF739FFCC
:100FC000B089FFF733FF3846FFF733FFB089401C85
:100FD00080B2FFF72BFFBDE8F041D8B229E7FFE769
:100FE000A2B21146FFF731FFB089BDE8F0411946C2
:100FF0002BE72DE9F04300240027DFF81482B8F82E
:101000000020824203D9B8F802208A4202D8002088
:10101000BDE8F083FFF73DFFB8F8040049F241391D
:1010200041F6631245F2103545F21056484507D097
:10103000A0F5D041043903D0A84201D0904203D199
:101040002E20FFF7F3FE09E0B04204D14FF43850F0
:10105000FFF7ECFE02E02220FFF7E8FEB8F80400FC
:10106000A0F51341203902D10220FFF70EFFFFF750
:10107000E4FEB8F804109142CAD00220FFF705FF41
:10108000FFF7DBFE0246B8F80400484503D0A8424B
:1010900001D0B0420AD10220FFF7F7FEFFF7CDFEE4
:1010A0000746D0B24FF6FF7101EA0024B8F80410E9
:1010B000A1F5134025381DD0A1F58A40353819D047
:1010C000A1F58A40313815D0A1F53540053811D049
:1010D000A1F5454005380DD0494503D0A94201D0BE
:1010E000B14209D1D00AC002A10A40EA411040EA47
:1010F000D7208DE710468BE7BDE8F0431046BBE6EE
:1011000043488088A0F51341413913D0A0F5D04160
:1011100004390FD0A0F5A64110390BD0A0F5C85165
:10112000633907D0A0F5AA41103905D040F27311F8
:1011300007208AE6292079E64FF4245076E63448E1
:101140008088A0F51341413912D0A0F5D04104396F
:101150000ED0A0F5A64110390AD0A0F5C8516339C8
:1011600006D0A0F5AA41103904D0002107206CE672
:1011700028205BE64FF4205058E6F0B50023244CBD
:1011800046F604072146A279898841F66315012AAB
:1011900003D1B94201D0A94202D1C2B9A94216D1A4
:1011A000082814D2DFE800F00406080A0C0E10121A
:1011B00006200CE007200AE0042008E0052006E0F5
:1011C000012004E0002002E0032000E00220A1F55D
:1011D000134C45F2103245F21056BCF1410C07D0C9
:1011E000B94205D0914203D0B14201D0A9427CD18D
:1011F000082816D2DFE800F0150406080E101214B5
:1012000080230EE040230CE0C0230AE0FE07006CC0
:10121000B00E0020202304E0602302E0A02300E0C1
:10122000E023B14202D14FF4585000E03620914201
:1012300005D0B14203D0A94201D043F00803B9421E
:1012400001D143F002031946FFF7FFFDA288AA422D
:101250000ED0980606D520886188884208D2218061
:10126000608005E020886188884201D92180608003
:10127000B24248D16089FFF7D9FD0020FFF7D9FDC0
:101280006089401C80B2FFF7D1FD0020FFF7D1FD3F
:101290006089801C80B2FFF7C9FD2088401EC0F322
:1012A0000F20FFF7C6FD6089C01C80B2FFF7BEFDAE
:1012B0002078401EC0B2FFF7BCFDA089FFF7B6FD45
:1012C0000020FFF7B6FDA089401C80B2FFF7AEFDFD
:1012D0000020FFF7AEFDA089801C80B2FFF7A6FDBD
:1012E0006088401EC0F30F2000E035E0FFF7A1FD4D
:1012F000A089C01C80B2FFF799FDA078BDE8F0403E
:10130000401EC0B295E56089FFF790FD0020FFF711
:1013100090FD0020FFF78DFD2088401EC0F30F20B8
:10132000FFF787FD2078401EC0B2FFF782FDA0893D
:10133000FFF77CFD0020FFF77CFD0020FFF779FD23
:101340006088401EC0F30F20FFF773FDA078BDE852
:10135000F040401EC0B26CE5082812D2DFE800F071
:10136000040608110A0C0E1030230AE0102308E0CE
:10137000202306E0382304E0282302E0182300E0BD
:101380000823032043F48051BDE8F0405DE500B53B
:10139000FFF77FFDFFF767FDFE48FF4900880880E3
:1013A00000BD2DE9F04103460C469046FB4F220A52
:1013B0003846B9881D0A4089A1F51346413E19D027
:1013C000A1F5A646103E15D0A1F5AA46103E23D0A1
:1013D0003D46A1F5C85CAE792D88ED1A6D1EBCF1B5
:1013E000630C35D0A1F5D04CBCF1040C51D0012ECA
:1013F00064D064E0FFF71AFD2846FFF71AFDD8B263
:10140000FFF717FDB889FFF711FD1046FFF711FD33
:10141000E0B2FFF70EFD59E0FFF708FD2846FFF7A1
:1014200008FD7889401C80B2FFF700FDD8B2FFF7B5
:1014300000FDB889FFF7FAFC1046FFF7FAFCB889FF
:10144000401C80B2FFF7F2FCE0B2FFF7F2FC3DE097
:1014500006B9ABB2FFF7EAFC1D0A2846FFF7E9FC24
:10146000D8B2FFF7E6FC2846FFF7E3FCD8B2FFF757
:10147000E0FCB889FFF7DAFC1046FFF7DAFCE0B2CF
:10148000FFF7D7FC1046FFF7D4FCE0B2FFF7D1FC22
:101490001CE0012E00D1ABB2FFF7C8FC180AFFF721
:1014A000C8FCD8B2FFF7C5FCB889FFF7BFFC1046EF
:1014B000FFF7BFFCE0B2FFF7BCFC07E0ABB2194698
:1014C000FFF7C3FCB8892146FFF7BFFCB249388952
:1014D000891E0880881CA0F80080BDE8F08110B546
:1014E0000246BE20FFF7A2FC0520FFF7A2FC104633
:1014F0000BF01EFB4FF06632A94B0BF069FB0BF0B3
:10150000D3FA80B2FFF795FC0120FFF792FCFF2091
:10151000FFF78FFC0020FFF78CFCBDE81040002097
:1015200087E42DE9F04F9D492A232B24898845F231
:10153000105C4FF430584FF428594FF448754FF071
:10154000F00A49F2413B4FF4A07745F210364FF4D0
:10155000F072002810D091484FF0010E80F806E09C
:101560000780A0F802A0594501D0B14240D12C25F6
:101570000581438184815CE088484FF0000E80F84B
:1015800006E0A0F800A04780594506D0A1F5D04A52
:10159000BAF1040A01D0B1420CD12C250581438156
:1015A0008481A1F5D043043B01D0B14249D10780E9
:1015B000428046E0614509D1A0F80880A0F80A9071
:1015C0004FF42C518181028045803AE0A1F5C85644
:1015D000633E06D022210181202141812121818188
:1015E0002FE02C210181448183810280458028E005
:1015F000A1F5D04ABAF1040A0BD061450ED1A0F88A
:101600000880A0F80A904FF42C5383810580428013
:101610000FE02C250581448183810AE0A1F5C85C97
:10162000BCF1630C11D022230381212343812023A9
:101630008381A1F5D043043B01D0B14201D10280A6
:101640004780BDE8F04F002097E54FF02C0CA0F844
:1016500008C04381848105804280EAE72DE9FC4F80
:1016600004460D46A018401E86B205EB030CACF1F3
:10167000010C1FFA8CF3DFF824E1A7187F1EBEF8D7
:101680000400C7F307270197270A00977746A0F5BC
:1016900013417F89CCF307284FEA1529413910D02F
:1016A000A0F5A64110390CD0A0F5D041043908D0DE
:1016B0009EF806A041F6631BBAF1010F22D15845EE
:1016C00020D172463846FFF7B1FB0098FFF7B1FB17
:1016D000E0B2FFF7AEFB0198FFF7ABFBF0B2FFF70C
:1016E000A8FB9089FFF7A2FB4846FFF7A2FBE8B2F0
:1016F000FFF79FFB4046FFF79CFBD8B2BDE8FC4FCD
:10170000FFF797BB25495845098828D1881A001B3F
:10171000764683B21FFA8CF43846FFF787FB180A27
:10172000FFF787FBD8B2FFF784FB1A44521EC2F3BF
:101730000F20FFF77EFBD0B2FFF77BFBB089FFF7EE
:1017400075FB4846FFF775FBE8B2FFF772FB200A0E
:10175000FFF76FFBE0B2BDE8FC4FFFF76ABBA0F5F7
:10176000A04C7246BCF5A26C2CD0BAF1010F67D028
:10177000204637462E4650224FF051084FF052096E
:101780004FF0530A01461046FFF75FFB39464046CB
:1017900008E000005E0000200008006CB00E002091
:1017A00066660440FFF751FB31464846FFF74DFBA4
:1017B00019465046FFF749FB29462046BDE8FC4F35
:1017C000FFF767BB3846FFF731FB0098FFF731FBA7
:1017D0005089401C80B2FFF729FBE0B2FFF729FBDC
:1017E0005089801C80B2FFF721FB0198FFF721FB95
:1017F0005089C01C80B2FFF719FBF0B2FFF719FB4C
:101800009089FFF713FB4846FFF713FB9089401CB4
:1018100080B2FFF70BFBE8B2FFF70BFB9089801C4F
:1018200080B2FFF703FB4046FFF703FB9089C01C23
:1018300080B2FFF7FBFAD8B2BDE8FC4FFFF7F9BA68
:1018400028461F468A1B521E96B2091B491E8BB2A0
:1018500091E72DE9F04306460024FE4F38887D8845
:101860004543B888A0F5D041043902D1B8790128A0
:1018700007D000210846FFF70CFBFFF7F4FAF64902
:1018800016E00020B8714FF02A09A7F80A904FF02F
:101890002B08A7F80C8000210846FFF7FAFA012070
:1018A000B871A7F80A80A7F80C90E6E70E80641CD0
:1018B000AC42FBD31DE42DE9F04F9FB001210C0297
:1018C000204608F093FD01214FF4B47008F099FD13
:1018D0000127ADF878704FF010088DF87B80032554
:1018E0008DF87A501EA9DD4808F085FB4CF2337064
:1018F000ADF8780018268DF87B608DF87A501EA917
:10190000D74808F078FB4FF68070ADF878008DF876
:101910007B608DF87A501EA9D24808F06CFB41F22A
:101920000100ADF878008DF87B608DF87A501EA923
:10193000CD4808F060FB0897002009900F210A911C
:101940000B900C900D900E900190029003950490D6
:1019500005900690079006210F9110901190CDF8F8
:1019600048801390159014901690179021011891AB
:10197000199089001A911B9008A81C9001A81D902D
:101980000FA808F0AAF80121062008F0DAF93220A1
:1019900007F046FF0020FFF75DFAAE4A908049F25B
:1019A000413846F6040945F2103A45F210554FF613
:1019B000FF76FF2804D3B04202D0B0F5134F78D1A0
:1019C000D320FFF733FAFFF738FA9080FFF735FAA4
:1019D0009080FFF732FA06EA00209080FFF72DFA98
:1019E000918808439080404563D0BF20FFF71EFADE
:1019F000FFF723FA9080FFF720FA9080FFF71DFA97
:101A00009080FFF71AFA06EA00209080FFF715FA97
:101A100091880843908048454BD0D420FFF706FAC0
:101A2000FFF70BFA9080FFF708FA9080FFF705FAAE
:101A300006EA00209080FFF700FA91880843908022
:101A4000504536D04FF45A40FFF7F0F9FFF7F5F95B
:101A500090804FF45B40FFF7E9F9FFF7EEF906EAF3
:101A6000002090804FF45C40FFF7E0F9FFF7E5F9C4
:101A7000918808439080B0F5004F00D19580908800
:101A8000A84216D0A120FFF7D1F9FFF7D6F9908030
:101A9000FFF7D3F906EA00209080FFF7CEF991888E
:101AA00008439080A0F5AE41613902D141F6631040
:101AB0009080908840457CD1CF20FFF7B7F9002077
:101AC000FFF7B7F9C120FFF7B4F93020FFF7B1F9FC
:101AD000ED20FFF7ABF96420FFF7ABF90320FFF728
:101AE000A8F91220FFF7A5F98120FFF7A2F9E82055
:101AF000FFF79CF98520FFF79CF91020FFF799F973
:101B00007A20FFF796F9CB20FFF790F93920FFF7FD
:101B100090F92C20FFF78DF90020FFF78AF9342087
:101B2000FFF787F90220FFF784F9F720FFF77EF926
:101B30002020FFF77EF9EA20FFF778F90020FFF771
:101B400078F90020FFF775F9C020FFF76FF91B2027
:101B5000FFF76FF9C120FFF769F90120FFF769F975
:101B6000C520FFF763F93020FFF763F93020FFF756
:101B700060F9C720FFF75AF9B720FFF75AF9362066
:101B8000FFF754F94820FFF754F93A20FFF74EF9D0
:101B90005520FFF74EF9B120FFF748F90020FFF775
:101BA00048F91A20FFF745F9B620FFF73FF90A2058
:101BB00000E0A7E0FFF73DF9A220FFF73AF9F22095
:101BC000FFF734F90020FFF734F92620FFF72EF94C
:101BD0000120FFF72EF9E020FFF728F90F20FFF78B
:101BE00028F92A20FFF725F92820FFF722F90820F5
:101BF000FFF71FF90E20FFF71CF90820FFF719F96E
:101C00005420FFF716F9A920FFF713F94320FFF737
:101C100010F90A20FFF70DF90F20FFF70AF900204D
:101C2000FFF707F90020FFF704F90020FFF701F99B
:101C30000020FFF7FEF8E120FFF7F8F80020FFF79B
:101C4000F8F81520FFF7F5F81720FFF7F2F807204E
:101C50000CE00000B00E00200008006C000C0140F9
:101C6000001401400018014000200140FFF7E1F896
:101C70001120FFF7DEF80620FFF7DBF82B20FFF737
:101C8000D8F85620FFF7D5F83C20FFF7D2F805200A
:101C9000FFF7CFF81020FFF7CCF80F20FFF7C9F8B7
:101CA0003F20FFF7C6F83F20FFF7C3F80F20FFF7EC
:101CB000C0F82B20FFF7BAF80020FFF7BAF8002091
:101CC000FFF7B7F80120FFF7B4F83F20FFF7B1F8AE
:101CD0002A20FFF7ABF80020FFF7ABF80020FFF752
:101CE000A8F80020FFF7A5F8EF20FFF7A2F81120D1
:101CF000FFF79CF8782007F093FD2920FFF796F86E
:101D000003F0BEB848457CD11120FFF78FF81420AE
:101D100007F086FDD020FFF789F80720FFF789F844
:101D20004220FFF786F81D20FFF783F8D120FFF748
:101D30007DF80020FFF77DF81A20FFF77AF80920D8
:101D4000FFF777F8D220FFF771F80120FFF771F85D
:101D50002220FFF76EF8C020FFF768F81020FFF789
:101D600068F83B20FFF765F80020FFF762F80220D3
:101D7000FFF75FF81120FFF75CF8C520FFF756F872
:101D80000320FFF756F8C820FFF750F80020FFF7B0
:101D900050F82520FFF74DF82120FFF74AF80520DD
:101DA000FFF747F80020FFF744F80A20FFF741F853
:101DB0006520FFF73EF82520FFF73BF87720FFF777
:101DC00038F85020FFF735F80F20FFF732F80020E1
:101DD000FFF72FF8F820FFF729F80120FFF729F87F
:101DE000FE20FFF723F80020FFF723F80220FFF77B
:101DF00020F82020FFF71AF83620FFF717F8082000
:101E000000E02CE0FFF715F83A20FFF70FF8552017
:101E1000FFF70FF82B20FFF709F80020FFF709F86C
:101E20000020FFF706F80120FFF703F83F20FFF737
:101E300000F82A20FEF7FAFF0020FEF7FAFF002044
:101E4000FEF7F7FF0120FEF7F4FFDF20FEF7F1FFBA
:101E5000782007F0E5FC2920FEF7E8FF50E7504521
:101E60007ED1ED20FEF7E2FF0120FEF7E2FFFE202B
:101E7000FEF7DFFFEE20FEF7D9FFDE20FEF7D9FFE9
:101E80002120FEF7D6FFF120FEF7D0FF0120FEF75C
:101E9000D0FFDF20FEF7CAFF1020FEF7CAFFC420E4
:101EA000FEF7C4FF8F20FEF7C4FFC620FEF7BEFF7B
:101EB0000020FEF7BEFFE220FEF7BBFFE220FEF7A8
:101EC000B8FFE220FEF7B5FFBF20FEF7AFFFAA2064
:101ED000FEF7AFFFB020FEF7A9FF0D20FEF7A9FF28
:101EE0000020FEF7A6FF0D20FEF7A3FF0020FEF75F
:101EF000A0FF1120FEF79DFF0020FEF79AFF19209A
:101F0000FEF797FF0020FEF794FF2120FEF791FFD8
:101F10000020FEF78EFF2D20FEF78BFF0020FEF73E
:101F200088FF3D20FEF785FF0020FEF782FF5D2041
:101F3000FEF77FFF0020FEF77CFF5D20FEF779FFB4
:101F40000020FEF776FFB120FEF770FF8020FEF73D
:101F500070FF0020FEF76DFF8B20FEF76AFF00E0A8
:101F6000FDE30020FEF765FF9620FEF762FF0020EC
:101F7000FEF75FFFB220FEF759FF0020FEF759FF82
:101F80000020FEF756FF0220FEF753FF0020FEF769
:101F900050FF0320FEF74DFF0020FEF74AFFB3205D
:101FA000FEF744FF0020FEF744FF0020FEF741FF4C
:101FB0000020FEF73EFF0020FEF73BFF0020FEF76B
:101FC00038FF0020FEF735FF0020FEF732FF00202B
:101FD000FEF72FFF0020FEF72CFF0020FEF729FF61
:101FE0000020FEF726FF0020FEF723FF0020FEF76B
:101FF00020FF0020FEF71DFF0020FEF71AFF002043
:10200000FEF717FF0020FEF714FF0020FEF711FF78
:102010000020FEF70EFF0020FEF70BFF0020FEF76A
:1020200008FF0020FEF705FF0020FEF702FF00205A
:10203000FEF7FFFEB420FEF7F9FE8B20FEF7F9FE57
:102040000020FEF7F6FE9620FEF7F3FE0020FEF7D6
:10205000F0FEA120FEF7EDFE0020FEF7EAFEB5201F
:10206000FEF7E4FE0220FEF7E4FE0020FEF7E1FEAC
:102070000320FEF7DEFE0020FEF7DBFE0420FEF765
:10208000D8FE0020FEF7D5FEB620FEF7CFFE0020DA
:10209000FEF7CFFE0020FEF7CCFEB720FEF7C6FE0F
:1020A0000020FEF7C6FE0020FEF7C3FE3F20FEF72D
:1020B000C0FE0020FEF7BDFE5E20FEF7BAFE002047
:1020C000FEF7B7FE6420FEF7B4FE0020FEF7B1FE77
:1020D0008C20FEF7AEFE0020FEF7ABFEAC20FEF734
:1020E000A8FE0020FEF7A5FEDC20FEF7A2FE0020E1
:1020F000FEF79FFE7020FEF79CFE0020FEF799FE83
:102100009020FEF796FE0020FEF793FEEB20FEF7F0
:1021100090FE0020FEF78DFEDC20FEF78AFE0020F8
:10212000FEF787FEB820FEF781FE0020FEF781FE55
:102130000020FEF77EFE0020FEF77BFE0020FEF76B
:1021400078FE0020FEF775FE0020FEF772FE0020EC
:10215000FEF76FFE0020FEF76CFEBA20FEF766FE6B
:102160002420FEF766FE0020FEF763FE0020FEF747
:1021700060FE0020FEF75DFEC120FEF757FE202026
:10218000FEF757FE0020FEF754FE5420FEF751FEE6
:102190000020FEF74EFEFF20FEF74BFE0020FEF76C
:1021A00048FEC220FEF742FE0A20FEF742FE002053
:1021B000FEF73FFE0420FEF73CFE0020FEF739FE4E
:1021C000C320FEF733FE3C20FEF733FE0020FEF76F
:1021D00030FE3A20FEF72DFE0020FEF72AFE3920C1
:1021E000FEF727FE0020FEF724FE3720FEF721FE33
:1021F0000020FEF71EFE3C20FEF71BFE0020FEF72F
:1022000018FE3620FEF715FE0020FEF712FE3220E3
:10221000FEF70FFE0020FEF70CFE2F20FEF709FE52
:102220000020FEF706FE2C20FEF703FE0020FEF73E
:1022300000FE2920FEF7FDFD0020FEF7FAFD262016
:10224000FEF7F7FD0020FEF7F4FD2420FEF7F1FD78
:102250000020FEF7EEFD2420FEF7EBFD0020FEF748
:10226000E8FD2320FEF7E5FD0020FEF7E2FD3C201F
:10227000FEF7DFFD0020FEF7DCFD3620FEF7D9FD7E
:102280000020FEF7D6FD3220FEF7D3FD0020FEF73A
:10229000D0FD2F20FEF7CDFD0020FEF7CAFD2C203B
:1022A000FEF7C7FD0020FEF7C4FD2920FEF7C1FDA3
:1022B0000020FEF7BEFD2620FEF7BBFD0020FEF746
:1022C000B8FD2420FEF7B5FD0020FEF7B2FD242066
:1022D000FEF7AFFD0020FEF7ACFD2320FEF7A9FDC1
:1022E0000020FEF7A6FDC420FEF7A0FD6220FEF749
:1022F000A0FD0020FEF79DFD0520FEF79AFD0020C1
:10230000FEF797FD8420FEF794FD0020FEF791FD77
:10231000F020FEF78EFD0020FEF78BFD1820FEF763
:1023200088FD0020FEF785FDA420FEF782FD002039
:10233000FEF77FFD1820FEF77CFD0020FEF779FDFB
:102340005020FEF776FD0020FEF773FD0C20FEF70F
:1023500070FD0020FEF76DFD1720FEF76AFD0020DE
:10236000FEF767FD9520FEF764FD0020FEF761FD96
:10237000F320FEF75EFD0020FEF75BFDE620FEF792
:1023800058FD0020FEF755FDC520FEF74FFD322019
:10239000FEF74FFD0020FEF74CFD4420FEF749FDFF
:1023A0000020FEF746FD6520FEF743FD0020FEF706
:1023B00040FD7620FEF73DFD0020FEF73AFD882027
:1023C000FEF737FD0020FEF734FDC620FEF72EFD98
:1023D0002020FEF72EFD0020FEF72BFD1720FEF734
:1023E00028FD0020FEF725FD0120FEF722FD00203C
:1023F000FEF71FFDC720FEF719FD0020FEF719FDAF
:102400000020FEF716FD0020FEF713FD0020FEF76A
:1024100010FDC820FEF70AFD0020FEF70AFD00208F
:10242000FEF707FD0020FEF704FD0020FEF701FD8A
:10243000C920FEF7FBFC0020FEF7FBFC0020FEF7A6
:10244000F8FC0020FEF7F5FC0020FEF7F2FC00206F
:10245000FEF7EFFC0020FEF7ECFC0020FEF7E9FCA5
:102460000020FEF7E6FC0020FEF7E3FC0020FEF76C
:10247000E0FC0020FEF7DDFC0020FEF7DAFC002087
:10248000FEF7D7FC0020FEF7D4FC0020FEF7D1FCBD
:102490000020FEF7CEFCE020FEF7C8FC1620FEF779
:1024A000C8FC0020FEF7C5FC1C20FEF7C2FC002083
:1024B000FEF7BFFC2120FEF7BCFC0020FEF7B9FCB4
:1024C0003620FEF7B6FC0020FEF7B3FC4620FEF7F0
:1024D000B0FC0020FEF7ADFC5220FEF7AAFC002065
:1024E000FEF7A7FC6420FEF7A4FC0020FEF7A1FC89
:1024F0007A20FEF79EFC0020FEF79BFC8B20FEF767
:1025000098FC0020FEF795FC9920FEF792FC002035
:10251000FEF78FFCA820FEF78CFC0020FEF789FC5C
:10252000B920FEF786FC0020FEF783FCC420FEF7EE
:1025300080FC0020FEF77DFCCA20FEF77AFC00201C
:10254000FEF777FCD220FEF774FC0020FEF771FC4A
:10255000D920FEF76EFC0020FEF76BFCE020FEF7B2
:1025600068FC0020FEF765FCF320FEF762FC00200B
:10257000FEF75FFCE120FEF759FC1620FEF759FC40
:102580000020FEF756FC1C20FEF753FC0020FEF74F
:1025900050FC2220FEF74DFC0020FEF74AFC3620BE
:1025A000FEF747FC0020FEF744FC4520FEF741FC07
:1025B0000020FEF73EFC5220FEF73BFC0020FEF719
:1025C00038FC6420FEF735FC0020FEF732FC7A2050
:1025D000FEF72FFC0020FEF72CFC8B20FEF729FCD9
:1025E0000020FEF726FC9920FEF723FC0020FEF7D2
:1025F00020FCA820FEF71DFC0020FEF71AFCB920E5
:10260000FEF717FC0020FEF714FCC420FEF711FCB7
:102610000020FEF70EFCCA20FEF70BFC0020FEF7A0
:1026200008FCD220FEF705FC0020FEF702FCD820B3
:10263000FEF7FFFB0020FEF7FCFBE020FEF7F9FBB6
:102640000020FEF7F6FBF320FEF7F3FB0020FEF779
:10265000F0FBE220FEF7EAFB0520FEF7EAFB002094
:10266000FEF7E7FB0B20FEF7E4FB0020FEF7E1FBA3
:102670001B20FEF7DEFB0020FEF7DBFB3420FEF71D
:10268000D8FB0020FEF7D5FB4420FEF7D2FB00204C
:10269000FEF7CFFB4F20FEF7CCFB0020FEF7C9FB77
:1026A0006120FEF7C6FB0020FEF7C3FB7920FEF792
:1026B000C0FB0020FEF7BDFB8820FEF7BAFB002020
:1026C000FEF7B7FB9720FEF7B4FB0020FEF7B1FB47
:1026D000A620FEF7AEFB0020FEF7ABFBB720FEF70F
:1026E000A8FB0020FEF7A5FBC220FEF7A2FB0020FE
:1026F000FEF79FFBC720FEF79CFB0020FEF799FB2F
:10270000D120FEF796FB0020FEF793FBD620FEF7C4
:1027100090FB0020FEF78DFBDD20FEF78AFB0020FA
:10272000FEF787FBF320FEF784FB0020FEF781FB1A
:10273000E320FEF77BFB0520FEF77BFB0020FEF786
:1027400078FB0A20FEF775FB0020FEF772FB1C20C9
:10275000FEF76FFB0020FEF76CFB332000E0FDE28C
:10276000FEF767FB0020FEF764FB4420FEF761FBE9
:102770000020FEF75EFB5020FEF75BFB0020FEF71B
:1027800058FB6220FEF755FB0020FEF752FB782035
:10279000FEF74FFB0020FEF74CFB8820FEF749FBBD
:1027A0000020FEF746FB9720FEF743FB0020FEF7D4
:1027B00040FBA620FEF73DFB0020FEF73AFBB720CA
:1027C000FEF737FB0020FEF734FBC220FEF731FB9B
:1027D0000020FEF72EFBC720FEF72BFB0020FEF7A4
:1027E00028FBD120FEF725FB0020FEF722FBD52099
:1027F000FEF71FFB0020FEF71CFBDD20FEF719FB98
:102800000020FEF716FBF320FEF713FB0020FEF777
:1028100010FBE420FEF70AFB0120FEF70AFB002074
:10282000FEF707FB0120FEF704FB0020FEF701FB8B
:102830000220FEF7FEFA0020FEF7FBFA2A20FEF740
:10284000F8FA0020FEF7F5FA3C20FEF7F2FA002035
:10285000FEF7EFFA4B20FEF7ECFA0020FEF7E9FA5C
:102860005D20FEF7E6FA0020FEF7E3FA7420FEF79B
:10287000E0FA0020FEF7DDFA8420FEF7DAFA002005
:10288000FEF7D7FA9320FEF7D4FA0020FEF7D1FA2C
:10289000A220FEF7CEFA0020FEF7CBFAB320FEF717
:1028A000C8FA0020FEF7C5FABE20FEF7C2FA0020E3
:1028B000FEF7BFFAC420FEF7BCFA0020FEF7B9FA13
:1028C000CD20FEF7B6FA0020FEF7B3FAD320FEF7CC
:1028D000B0FA0020FEF7ADFADD20FEF7AAFA0020DC
:1028E000FEF7A7FAF320FEF7A4FA0020FEF7A1FAFC
:1028F000E520FEF79BFA0020FEF79BFA0020FEF78A
:1029000098FA0020FEF795FA0020FEF792FA0220CE
:10291000FEF78FFA0020FEF78CFA2920FEF789FADD
:102920000020FEF786FA3C20FEF783FA0020FEF72F
:1029300080FA4B20FEF77DFA0020FEF77AFA5D2040
:10294000FEF777FA0020FEF774FA7420FEF771FAAA
:102950000020FEF76EFA8420FEF76BFA0020FEF7E7
:1029600068FA9320FEF765FA0020FEF762FAA220CB
:10297000FEF75FFA0020FEF75CFAB320FEF759FA83
:102980000020FEF756FABE20FEF753FA0020FEF7AD
:1029900050FAC420FEF74DFA0020FEF74AFACD2087
:1029A000FEF747FA0020FEF744FAD320FEF741FA7B
:1029B0000020FEF73EFADC20FEF73BFA0020FEF78F
:1029C00038FAF320FEF735FA0020FEF732FAE62057
:1029D000FEF72CFA1120FEF72CFA0020FEF729FA58
:1029E0003420FEF726FA0020FEF723FA5620FEF7E1
:1029F00020FA0020FEF71DFA7620FEF71AFA0020D2
:102A0000FEF717FA7720FEF714FA0020FEF711FA06
:102A10006620FEF70EFA0020FEF70BFA8820FEF77C
:102A200008FA0020FEF705FA9920FEF702FA0020C6
:102A3000FEF7FFF9BB20FEF7FCF90020FEF7F9F9DD
:102A40009920FEF7F6F90020FEF7F3F96620FEF76D
:102A5000F0F90020FEF7EDF95520FEF7EAF9002025
:102A6000FEF7E7F95520FEF7E4F90020FEF7E1F95B
:102A70004520FEF7DEF90020FEF7DBF94320FEF7E4
:102A8000D8F90020FEF7D5F94420FEF7D2F900204E
:102A9000FEF7CFF9E720FEF7C9F93220FEF7C9F9B2
:102AA0000020FEF7C6F95520FEF7C3F90020FEF717
:102AB000C0F97620FEF7BDF90020FEF7BAF96620CE
:102AC000FEF7B7F90020FEF7B4F96720FEF7B1F979
:102AD0000020FEF7AEF96720FEF7ABF90020FEF705
:102AE000A8F98720FEF7A5F90020FEF7A2F99920A2
:102AF000FEF79FF90020FEF79CF9BB20FEF799F93D
:102B00000020FEF796F99920FEF793F90020FEF7D2
:102B100090F97720FEF78DF90020FEF78AF944201E
:102B2000FEF787F90020FEF784F95620FEF781F9B9
:102B30000020FEF77EF92320FEF77BF90020FEF748
:102B400078F93320FEF775F90020FEF772F9452079
:102B5000FEF76FF90020FEF76CF9E820FEF766F942
:102B60000020FEF766F90020FEF763F99920FEF7D2
:102B700060F90020FEF75DF98720FEF75AF9002082
:102B8000FEF757F98820FEF754F90020FEF751F9B7
:102B90007720FEF74EF90020FEF74BF96620FEF78E
:102BA00048F90020FEF745F98820FEF742F9002099
:102BB000FEF73FF9AA20FEF73CF90020FEF739F9AD
:102BC000BB20FEF736F90020FEF733F99920FEF717
:102BD00030F90020FEF72DF96620FEF72AF90020D3
:102BE000FEF727F95520FEF724F90020FEF721F91A
:102BF0005520FEF71EF90020FEF71BF94420FEF7D2
:102C000018F90020FEF715F94420FEF712F900200C
:102C1000FEF70FF95520FEF70CF90020FEF709F931
:102C2000E920FEF703F9AA20FEF703F90020FEF7DA
:102C300000F90020FEF7FDF80020FEF7FAF800206A
:102C4000FEF7F4F8AA20FEF7F4F8CF20FEF7EEF82E
:102C50000020FEF7EEF80020FEF7EBF80020FEF76C
:102C6000E8F80020FEF7E5F80020FEF7E2F8002083
:102C7000FEF7DFF80020FEF7DCF80020FEF7D9F8B9
:102C80000020FEF7D6F80020FEF7D3F80020FEF76C
:102C9000D0F80020FEF7CDF80020FEF7CAF800209B
:102CA000FEF7C7F80020FEF7C4F80020FEF7C1F8D1
:102CB0000020FEF7BEF8F020FEF7B8F80020FEF77F
:102CC000B8F85020FEF7B5F80020FEF7B2F8002063
:102CD000FEF7AFF80020FEF7ACF8F320FEF7A6F8F9
:102CE0000020FEF7A6F8F920FEF7A0F80620FEF770
:102CF000A0F81020FEF79DF82920FEF79AF8002092
:102D0000FEF797F83A20FEF791F85520FEF791F874
:102D10001120FEF78BF8642006F082FD2920FEF7D3
:102D200085F83520FEF782F80020FEF782F8512062
:102D3000FEF77CF8FF20FEF77CF85320FEF776F8CC
:102D40002C20FEF776F85520FEF770F88220FEF76B
:102D500070F82C20FEF76AF802F092B8A8427CD1F5
:102D60004FF4704355211846FEF76FF84FF20104F7
:102D7000AA212046FEF769F8651C52212846FEF775
:102D800064F84FF2030808214046FEF75EF84FF260
:102D9000040901214846FEF758F80D214FF4304050
:102DA000FEF753F80D214BF20100FEF74EF80D210E
:102DB0004BF20200FEF749F84FF4364A34215046F0
:102DC000FEF743F834214BF20160FEF73EF8342160
:102DD0004BF20260FEF739F84FF4314B0D215846A3
:102DE000FEF733F80D214BF20110FEF72EF80D21FE
:102DF0004BF20210FEF729F834214FF43740FEF76A
:102E000024F834214BF20170FEF71FF834214BF205
:102E10000270FEF71AF800214FF43240FEF715F861
:102E200000214BF20120FEF710F800214BF20220A6
:102E3000FEF70BF824214FF43840FEF706F8242162
:102E40004BF60100FEF701F824214BF60200FDF7D6
:102E5000FCFF01214FF43F4000E0FCE3FDF7F5FFEC
:102E60000F214FF43340FDF7F0FF0F214BF20130FB
:102E7000FDF7EBFF0F214BF20230FDF7E6FF3421A7
:102E80004FF43940FDF7E1FF34214BF60110FDF717
:102E9000DCFF34214BF60210FDF7D7FF08214FF479
:102EA0003540FDF7D2FF08214BF20150FDF7CDFF71
:102EB00008214BF20250FDF7C8FF03214FF44240B6
:102EC000FDF7C3FF24214FF43A40FDF7BEFF242154
:102ED0004BF60120FDF7B9FF24214BF60220FDF748
:102EE000B4FF00214FF43C40FDF7AFFF78214BF6D3
:102EF0000140FDF7AAFF00214BF60240FDF7A5FFB8
:102F000000214FF43D40FDF7A0FF78214BF6015022
:102F1000FDF79BFF00214BF60250FDF796FF0021C5
:102F20004FF43E40FDF791FF64214BF60160FDF741
:102F30008CFF00214FF45140FDF787FF33214DF204
:102F40000110FDF782FF00214DF20210FDF77DFF19
:102F500034214DF20310FDF778FF00214DF20410EB
:102F6000FDF773FF3A214DF20510FDF76EFF0021CA
:102F70004DF20610FDF769FF4A214DF20710FDF7EB
:102F800064FF00214DF20810FDF75FFF5C214DF258
:102F90000910FDF75AFF00214DF20A10FDF755FF09
:102FA00081214DF20B10FDF750FF00214DF20C1066
:102FB000FDF74BFFA6214DF20D10FDF746FF002156
:102FC0004DF20E10FDF741FFE5214DF20F10FDF718
:102FD0003CFF01214DF21010FDF737FF13214DF298
:102FE0001110FDF732FF01214DF21210FDF72DFFF8
:102FF00054214DF21310FDF728FF01214DF214105A
:10300000FDF723FF82214DF21510FDF71EFF012170
:103010004DF21610FDF719FFCA214DF21710FDF7FA
:1030200014FF02214DF21810FDF70FFF00214DF2A1
:103030001910FDF70AFF02214DF21A10FDF705FFE6
:1030400001214DF21B10FDF700FF02214DF21C1073
:10305000FDF7FBFE34214DF21D10FDF7F6FE0221B7
:103060004DF21E10FDF7F1FE67214DF21F10FDF726
:10307000ECFE02214DF22010FDF7E7FE84214DF217
:103080002110FDF7E2FE02214DF22210FDF7DDFED8
:10309000A4214DF22310FDF7D8FE02214DF2241099
:1030A000FDF7D3FEB7214DF22510FDF7CEFE02212C
:1030B0004DF22610FDF7C9FECF214DF22710FDF786
:1030C000C4FE02214DF22810FDF7BFFEDE214DF2B5
:1030D0002910FDF7BAFE02214DF22A10FDF7B5FEC8
:1030E000F2214DF22B10FDF7B0FE02214DF22C1013
:1030F000FDF7ABFEFE214DF22D10FDF7A6FE0321DC
:103100004DF22E10FDF7A1FE10214DF22F10FDF70C
:103110009CFE03214DF23010FDF797FE33214DF256
:103120003110FDF792FE03214DF23210FDF78DFEB6
:103130006D214DF23310FDF788FE00214FF452400F
:10314000FDF783FE33214DF20120FDF77EFE0021C5
:103150004DF20220FDF779FE34214DF20320FDF7F8
:1031600074FE00214DF20420FDF76FFE3A214DF26E
:103170000520FDF76AFE00214DF20620FDF765FEF1
:103180004A214DF20720FDF760FE00214DF2082094
:10319000FDF75BFE5C214DF20920FDF756FE002194
:1031A0004DF20A20FDF751FE81214DF20B20FDF773
:1031B0004CFE00214DF20C20FDF747FEA6214DF2FA
:1031C0000D20FDF742FE00214DF20E20FDF73DFEE1
:1031D000E5214DF20F20FDF738FE01214DF21020C0
:1031E000FDF733FE13214DF21120FDF72EFE0121D4
:1031F0004DF21220FDF729FE54214DF21320FDF768
:1032000024FE01214DF21420FDF71FFE82214DF214
:103210001520FDF71AFE01214DF21620FDF715FECF
:10322000CA214DF21720FDF710FE02214DF21820A1
:10323000FDF70BFE00214DF21920FDF706FE0221DD
:103240004DF21A20FDF701FE01214DF21B20FDF782
:10325000FCFD02214DF21C20FDF7F7FD34214DF25B
:103260001D20FDF7F2FD02214DF21E20FDF7EDFDC0
:1032700067214DF21F20FDF7E8FD02214DF22020CD
:10328000FDF7E3FD84214DF22120FDF7DEFD022153
:103290004DF22220FDF7D9FDA4214DF22320FDF7A8
:1032A000D4FD02214DF22420FDF7CFFDB7214DF2D0
:1032B0002520FDF7CAFD02214DF22620FDF7C5FDB0
:1032C000CF214DF22720FDF7C0FD02214DF228202D
:1032D000FDF7BBFDDE214DF22920FDF7B6FD0221F1
:1032E0004DF22A20FDF7B1FDF2214DF22B20FDF722
:1032F000ACFD02214DF22C20FDF7A7FDFE214DF281
:103300002D20FDF7A2FD03214DF22E20FDF79DFD9E
:1033100010214DF22F20FDF798FD03214DF23020B2
:10332000FDF793FD33214DF23120FDF78EFD032192
:103330004DF23220FDF789FD6D214DF23320FDF76E
:1033400084FD00214FF45340FDF77FFD33214DF202
:103350000130FDF77AFD00214DF20230FDF775FDD9
:1033600034214DF20330FDF770FD00214DF20430A1
:10337000FDF76BFD3A214DF20530FDF766FD0021AA
:103380004DF20630FDF761FD4A214DF20730FDF7A1
:103390005CFD00214DF20830FDF757FD5C214DF238
:1033A0000930FDF752FD00214DF20A30FDF74DFDC9
:1033B00081214DF20B30FDF748FD00214DF20C301C
:1033C000FDF743FDA6214DF20D30FDF73EFD002136
:1033D0004DF20E30FDF739FDE5214DF20F30FDF7CE
:1033E00034FD01214DF21030FDF72FFD13214DF278
:1033F0001130FDF72AFD01214DF21230FDF725FDB8
:1034000054214DF21330FDF720FD01214DF214300F
:10341000FDF71BFD82214DF21530FDF716FD012150
:103420004DF21630FDF711FDCA214DF21730FDF7B0
:103430000CFD02214DF21830FDF707FD00214DF281
:103440001930FDF702FD02214DF21A30FDF7FDFCA7
:1034500001214DF21B30FDF7F8FC02214DF21C302A
:10346000FDF7F3FC34214DF21D30FDF7EEFC022197
:103470004DF21E30FDF7E9FC67214DF21F30FDF7DC
:10348000E4FC02214DF22030FDF7DFFC84214DF2F7
:103490002130FDF7DAFC02214DF22230FDF7D5FC98
:1034A000A4214DF22330FDF7D0FC02214DF224304F
:1034B000FDF7CBFCB7214DF22530FDF7C6FC02210C
:1034C0004DF22630FDF7C1FCCF214DF22730FDF73C
:1034D000BCFC02214DF22830FDF7B7FCDE214DF295
:1034E0002930FDF7B2FC02214DF22A30FDF7ADFC88
:1034F000F2214DF22B30FDF7A8FC02214DF22C30C9
:10350000FDF7A3FCFE214DF22D30FDF79EFC0321BB
:103510004DF22E30FDF799FC10214DF22F30FDF7C2
:1035200094FC03214DF23030FDF78FFC33214DF236
:103530003130FDF78AFC03214DF23230FDF785FC76
:103540006D214DF23330FDF780FC00214FF45440E3
:10355000FDF77BFC33214DF20140FDF776FC0021A5
:103560004DF20240FDF771FC34214DF20340FDF7AE
:103570006CFC00214DF20440FDF767FC3A214DF24E
:103580000540FDF762FC00214DF20640FDF75DFCB1
:103590004A214DF20740FDF758FC00214DF208404A
:1035A000FDF753FC5C214DF20940FDF74EFC002174
:1035B0004DF20A40FDF749FC81214DF20B40FDF729
:1035C00044FC00214DF20C40FDF73FFCA6214DF2DA
:1035D0000D40FDF73AFC00214DF20E40FDF735FCA1
:1035E000E5214DF20F40FDF730FC01214DF2104076
:1035F000FDF72BFC13214DF21140FDF726FC0121B4
:103600004DF21240FDF721FC54214DF21340FDF71D
:103610001CFC01214DF21440FDF717FC82214DF2F4
:103620001540FDF712FC01214DF21640FDF70DFC8F
:10363000CA214DF21740FDF708FC02214DF2184057
:10364000FDF703FC00214DF21940FDF7FEFB0221BE
:103650004DF21A4000E004E3FDF7F7FB01214DF2C3
:103660001B40FDF7F2FB02214DF21C40FDF7EDFB84
:1036700034214DF21D40FDF7E8FB02214DF21E40C2
:10368000FDF7E3FB67214DF21F40FDF7DEFB022152
:103690004DF22040FDF7D9FB84214DF22140FDF78A
:1036A000D4FB02214DF22240FDF7CFFBA4214DF2C5
:1036B0002340FDF7CAFB02214DF22440FDF7C5FB74
:1036C000B7214DF22540FDF7C0FB02214DF2264007
:1036D000FDF7BBFBCF214DF22740FDF7B6FB0221E2
:1036E0004DF22840FDF7B1FBDE214DF22940FDF7F8
:1036F000ACFB02214DF22A40FDF7A7FBF2214DF26F
:103700002B40FDF7A2FB02214DF22C40FDF79DFB63
:10371000FE214DF22D40FDF798FB03214DF22E4086
:10372000FDF793FB10214DF22F40FDF78EFB032197
:103730004DF23040FDF789FB33214DF23140FDF76A
:1037400084FB03214DF23240FDF77FFB6D214DF2EA
:103750003340FDF77AFB00214FF45540FDF775FB30
:1037600033214DF20150FDF770FB00214DF2025064
:10377000FDF76BFB34214DF20350FDF766FB002192
:103780004DF20450FDF761FB3A214DF20550FDF773
:103790005CFB00214DF20650FDF757FB4A214DF22C
:1037A0000750FDF752FB00214DF20850FDF74DFB8D
:1037B0005C214DF20950FDF748FB00214DF20A5003
:1037C000FDF743FB81214DF20B50FDF73EFB00213D
:1037D0004DF20C50FDF739FBA6214DF20D50FDF7CF
:1037E00034FB00214DF20E50FDF72FFBE5214DF289
:1037F0000F50FDF72AFB01214DF21050FDF725FB7C
:1038000013214DF21150FDF720FB01214DF2125012
:10381000FDF71BFB54214DF21350FDF716FB012160
:103820004DF21450FDF711FB82214DF21550FDF7BA
:103830000CFB01214DF21650FDF707FBCA214DF29A
:103840001750FDF702FB02214DF21850FDF7FDFA6B
:1038500000214DF21950FDF7F8FA02214DF21A50ED
:10386000FDF7F3FA01214DF21B50FDF7EEFA0221AC
:103870004DF21C50FDF7E9FA34214DF21D50FDF7D1
:10388000E4FA02214DF21E50FDF7DFFA67214DF2F6
:103890001F50FDF7DAFA02214DF22050FDF7D5FA5C
:1038A00084214DF22150FDF7D0FA02214DF2225031
:1038B000FDF7CBFAA4214DF22350FDF7C6FA022101
:1038C0004DF22450FDF7C1FAB7214DF22550FDF716
:1038D000BCFA02214DF22650FDF7B7FACF214DF286
:1038E0002750FDF7B2FA02214DF22850FDF7ADFA4C
:1038F000DE214DF22950FDF7A8FA02214DF22A509F
:10390000FDF7A3FAF2214DF22B50FDF79EFA0221AA
:103910004DF22C50FDF799FAFE214DF22D50FDF796
:1039200094FA03214DF22E50FDF78FFA10214DF23B
:103930002F50FDF78AFA03214DF23050FDF785FA3A
:1039400033214DF23150FDF780FA03214DF2325010
:10395000FDF77BFA6D214DF23350FDF776FA002129
:103960004FF45640FDF771FA33214DF20160FDF737
:103970006CFA00214DF20260FDF767FA34214DF236
:103980000360FDF762FA00214DF20460FDF75DFA75
:103990003A214DF20560FDF758FA00214DF206601C
:1039A000FDF753FA4A214DF20760FDF74EFA002168
:1039B0004DF20860FDF749FA5C214DF20960FDF710
:1039C00044FA00214DF20A60FDF73FFA81214DF2E1
:1039D0000B60FDF73AFA00214DF20C60FDF735FA65
:1039E000A6214DF20D60FDF730FA00214DF20E6078
:1039F000FDF72BFAE5214DF20F60FDF726FA0121C4
:103A00004DF21060FDF721FA13214DF21160FDF720
:103A10001CFA01214DF21260FDF717FA54214DF204
:103A20001360FDF712FA01214DF21460FDF70DFA53
:103A300082214DF21560FDF708FA01214DF2166062
:103A4000FDF703FACA214DF21760FDF7FEF90221D6
:103A50004DF21860FDF7F9F900214DF21960FDF7FC
:103A6000F4F902214DF21A60FDF7EFF901214DF250
:103A70001B60FDF7EAF902214DF21C60FDF7E5F944
:103A800034214DF21D60FDF7E0F902214DF21E6078
:103A9000FDF7DBF967214DF21F60FDF7D6F9022132
:103AA0004DF22060FDF7D1F984214DF22160FDF740
:103AB000CCF902214DF22260FDF7C7F9A4214DF2A5
:103AC0002360FDF7C2F902214DF22460FDF7BDF934
:103AD000B7214DF22560FDF7B8F902214DF22660BD
:103AE000FDF7B3F9CF214DF22760FDF7AEF90221C2
:103AF0004DF22860FDF7A9F9DE214DF22960FDF7AE
:103B0000A4F902214DF22A60FDF79FF9F2214DF24E
:103B10002B60FDF79AF902214DF22C60FDF795F923
:103B2000FE214DF22D60FDF790F903214DF22E603C
:103B3000FDF78BF910214DF22F60FDF786F9032177
:103B40004DF23060FDF781F933214DF23160FDF720
:103B50007CF903214DF23260FDF777F96D214DF2CA
:103B60003360FDF772F955211846FDF76EF9AA2169
:103B70002046FDF76AF952212846FDF766F908212B
:103B80004046FDF762F900214846FDF75EF9CC2179
:103B90005846FDF75AF900214BF20110FDF755F98F
:103BA00005215046FDF751F970214FF43740FDF7DC
:103BB0004CF970214BF20170FDF747F901214FF4E8
:103BC0003840FDF742F903214BF60100FDF73DF9BE
:103BD00003214BF60200FDF738F903214BF60300F1
:103BE000FDF733F902214FF43C40FDF72EF9002197
:103BF0004BF60140FDF729F900214BF60240FDF795
:103C000024F9D0214FF44940FDF71FF902214CF669
:103C10000110FDF71AF950214CF60210FDF715F9C5
:103C200050214CF60310FDF710F950214CF604100A
:103C3000FDF70BF900214FF45450FDF706F955211B
:103C40004FF46850FDF701F94FF48850FDF7EEF896
:103C5000782005F0CEFD4FF42450FDF7E7F801F091
:103C60000FB9A0F513414FF4E06840F2022940F289
:103C70003F1A4FF4274B25392CD0A0F5134140F2C1
:103C8000077528397ED0A0F513414FF41C5B20390D
:103C900079D0A0F51341313976D0A0F5A841083983
:103CA00073D0A0F5A851053970D0A0F5354105397C
:103CB0006DD0A0F5454105396AD0A0F58A4131396A
:103CC00067D0A0F58A4135397ED0A0F5C851633957
:103CD0007BD0C4E747F6F001E520FDF7B6F82146B2
:103CE0000120FDF7B2F841460220FDF7AEF841F29F
:103CF00030010320FDF7A9F800210420FDF7A5F805
:103D000049460820FDF7A1F800210920FDF79DF89C
:103D100000210A20FDF799F800210C20FDF795F805
:103D200000210D20FDF791F800210F20FDF78DF8FF
:103D300000211020FDF789F807211120FDF785F8F3
:103D400000211220FDF781F800211320FDF77DF8F6
:103D500000210720FDF779F841F290611020FDF76E
:103D600074F840F227211120FDF76FF89D211220F1
:103D7000FDF76BF84FF4C8511320FDF766F82521C5
:103D8000292007E083E06FE115E2EFE28CE3FDE339
:103D9000FDE3FDE3FDF759F80D212B20FDF755F864
:103DA00007213020FDF751F840F203313120FDF7B3
:103DB0004CF803213220FDF748F840F20621352067
:103DC000FDF743F8082101E0FEE3FEE33620FDF7AE
:103DD0003CF840F206413720FDF737F84FF44171C7
:103DE0003820FDF732F807213920FDF72EF840F290
:103DF00002613C20FDF729F808213D20FDF725F858
:103E000000215020FDF721F8EF215120FDF71DF88A
:103E100000215220FDF719F851465320FDF715F8FF
:103E200059466020FDF711F801216120FDF70DF8DA
:103E300000216A20FDF709F800218020FDF705F830
:103E400000218120FDF701F800218220FCF7FDFF11
:103E500000218320FCF7F9FF00218420FCF7F5FF07
:103E600000218520FCF7F1FF10219020FCF7EDFFE9
:103E70004FF4C0619220FCF7E8FF40F233110720B5
:103E8000FCF7E3FF22210020FCF7DFFFE7E641F229
:103E90008F01EC20FCF7D9FF41F23421EF20FCF731
:103EA000D4FF21460120FCF7D0FF41460220FCF759
:103EB000CCFF41F230010320FCF7C7FF00210420B2
:103EC000FCF7C3FF49460820FCF7BFFF002109208B
:103ED000FCF7BBFF00210A20FCF7B7FF01210C20F3
:103EE000FCF7B3FF00210D20FCF7AFFF00210F20EE
:103EF000FCF7ABFF00211020FCF7A7FF07211120E2
:103F0000FCF7A3FF00211220FCF79FFF00211320E4
:103F1000FCF79BFF01210720FCF797FF322005F0FB
:103F20007FFC41F290411020FCF78FFF40F22721E7
:103F30001120FCF78AFF322005F072FC8A21122042
:103F4000FCF783FF322005F06BFC4FF4D0511320B7
:103F5000FCF77BFF06212920FCF777FF0D212B20A2
:103F6000FCF773FF322005F05BFC00212020FCF7FA
:103F70006CFF00212120FCF768FF322005F050FC87
:103F800000213020FCF761FF40F204613120FCF792
:103F90005CFF40F205313220FCF757FF002135204D
:103FA000FCF753FF40F609413620FCF74EFF4FF473
:103FB00001713720FCF749FF40F201313820FCF74E
:103FC00044FF29463920FCF740FF00213C20FCF744
:103FD0003CFF40F60A213D20FCF737FF322005F078
:103FE0001FFC00215020FCF730FFEF215120FCF78F
:103FF0002CFF00215220FCF728FF51465320FCF7EC
:1040000024FF59466020FCF720FF01216120FCF7C6
:104010001CFF00216A20FCF718FF00218020FCF71C
:1040200014FF00218120FCF710FF00218220FCF703
:104030000CFF00218320FCF708FF00218420FCF7FF
:1040400004FF00218520FCF700FF10219020FCF7E1
:10405000FCFE4FF4C0619220FCF7F7FE40F23311F2
:104060000720FCF7F2FEFAE500210846FCF7EDFE1A
:1040700021460120FCF7E9FE41460220FCF7E5FE5F
:1040800041F230010320FCF7E0FE00210420FCF7A0
:10409000DCFE49460820FCF7D8FE00210920FCF789
:1040A000D4FE00210A20FCF7D0FE01210C20FCF7F1
:1040B000CCFE00210D20FCF7C8FE00210F20FCF7EC
:1040C000C4FE322005F0ACFB40F201110720FCF7E2
:1040D000BCFE322005F0A4FB4FF486511020FCF703
:1040E000B4FE07211120FCF7B0FE4FF48873194687
:1040F0001220FCF7AAFE4FF430611320FCF7A5FE56
:1041000000212920FCF7A1FE44F210012B20FCF72E
:104110009CFE00215020FCF798FEEF215120FCF777
:1041200094FE00215220FCF790FE51465320FCF7EC
:104130008CFE59466020FCF788FE01216120FCF7C7
:1041400084FE00216A20FCF780FE00218020FCF71D
:104150007CFE00218120FCF778FE00218220FCF704
:1041600074FE00218320FCF770FE00218420FCF700
:104170006CFE00218520FCF768FE10219020FCF7E2
:1041800064FE00219220FCF760FE01219320FCF7E1
:104190005CFE19469520FCF758FE00219720FCF79D
:1041A00054FE00219820FCF750FE40F273110720C6
:1041B000FCF74BFE53E541F21401E720FCF745FE06
:1041C00021460120FCF741FE4FF400710220FCF76C
:1041D0003CFE41F238010320FCF737FE4946082037
:1041E000FCF733FE00210920FCF72FFE00210A20F6
:1041F000FCF72BFE00210C20FCF727FE00210D20F0
:10420000FCF723FE00210F20FCF71FFE00211020E9
:10421000FCF71BFE07211120FCF717FE00211220DE
:10422000FCF713FE00211320FCF70FFEC82005F059
:10423000F7FA41F290611020FCF707FE40F22721C7
:104240001120FCF702FE322005F0EAFA0C211220C0
:10425000FCF7FBFD322005F0E3FA4FF40061132078
:10426000FCF7F3FD11212920FCF7EFFD0B212B209A
:10427000FCF7EBFD322005F0D3FA00212020FCF7FB
:10428000E4FD51462120FCF7E0FD00213020FCF741
:10429000DCFD4FF4837319463120FCF7D6FD002175
:1042A0003220FCF7D2FD4FF401713520FCF7CDFD33
:1042B00041F20A613620FCF7C8FD29463720FCF799
:1042C000C4FD19463820FCF7C0FD29463920FCF70B
:1042D000BCFD40F202413C20FCF7B7FD40F60F4127
:1042E0003D20FCF7B2FD00215020FCF7AEFDEF2190
:1042F0005120FCF7AAFD00215220FCF7A6FD5146F3
:104300005320FCF7A2FD59466020FCF79EFD0121D9
:104310006120FCF79AFD00216A20FCF796FD002140
:104320008020FCF792FD00218120FCF78EFD00210A
:104330008220FCF78AFD00218320FCF786FD002106
:104340008420FCF782FD00218520FCF77EFD1021F2
:104350009020FCF77AFD4FF4C0619220FCF775FDC8
:1043600040F233110720FCF770FD78E4214601206C
:10437000FCF76BFD41460220FCF767FD41F230017E
:104380000320FCF762FD00210420FCF75EFD40F2F3
:1043900007210820FCF759FD00210920FCF755FDF5
:1043A00000210A20FCF751FD00210C20FCF74DFDF7
:1043B00000210D20FCF749FD00210F20FCF745FDF1
:1043C000142005F02DFA41F2B0611020FCF73DFDFC
:1043D00001211120FCF739FD01211720FCF735FDE3
:1043E0004FF49C711220FCF730FD4FF40061132054
:1043F000FCF72BFD09212920FCF727FD09212A20A4
:10440000FCF723FD0021A420FCF71FFD0021502014
:10441000FCF71BFDEF215120FCF717FD0021522076
:10442000FCF713FD51465320FCF70FFD5946602061
:10443000FCF70BFD01216120FCF707FD00216A203C
:10444000FCF703FD00218020FCF7FFFC0021812008
:10445000FCF7FBFC00218220FCF7F7FC0021832005
:10446000FCF7F3FC00218420FCF7EFFC0021852001
:10447000FCF7EBFC13219020FCF7E7FC00219220D5
:10448000FCF7E3FC03219320FCF7DFFC4FF4887179
:104490009520FCF7DAFC40F273110720FCF7D5FCFD
:1044A000322005F0BDF914E400210720FCF7CDFC13
:1044B000322005F0B5F94FF48E711220FCF7C5FCDF
:1044C0000121A420FCF7C1FC0F210820FCF7BDFC52
:1044D00008210A20FCF7B9FC08210D20FCF7B5FCE7
:1044E00029463020FCF7B1FC07213120FCF7ADFC58
:1044F00040F203613220FCF7A8FC41463320FCF770
:10450000A4FC49463420FCF7A0FC02213520FCF72E
:104510009CFC41F60F713620FCF797FC29463720AA
:10452000FCF793FC00213820FCF78FFC0021392098
:10453000FCF78BFC29463A20FCF787FC00213B2046
:10454000FCF783FC07213C20FCF77FFC00213D2089
:10455000FCF77BFC322005F063F901210720FCF712
:1045600074FC01211720FCF770FC322005F058F98B
:104570004FF4BD511020FCF768FC40F217211120C8
:10458000FCF763FC4FF48F71122002E09DE097E18D
:1045900061E2FCF75AFC4FF470611320FCF755FC04
:1045A00000212A20FCF751FC0A212920FCF74DFCB0
:1045B0004FF49F711220FCF748FC00215020FCF7BB
:1045C00044FCEF21512001E0FAE2A4E3FCF73DFCBA
:1045D00000215220FCF739FC51465320FCF735FCF2
:1045E00059466020FCF731FC01216120FCF72DFCCD
:1045F00000216A20FCF729FC00218020FCF725FC23
:1046000000218120FCF721FC00218220FCF71DFC09
:1046100000218320FCF719FC00218420FCF715FC05
:1046200000218520FCF711FC13219020FCF70DFCE4
:104630004FF440719220FCF708FC05219320FCF711
:1046400004FC00219520FCF700FC00219720FCF7DA
:10465000FCFB00219820FCF7F8FB21460120FCF729
:10466000F4FB41460220FCF7F0FB41F23801032045
:10467000FCF7EBFB00210420FCF7E7FB00210C20FA
:10468000FCF7E3FB00210F20FCF7DFFB00212020DB
:10469000FCF7DBFB00212120FCF7D7FB21210720C1
:1046A000FCF7D3FB142005F0BBF861210720FCF7D1
:1046B000CCFB142005F0B4F840F273110720FCF78E
:1046C000C4FB142005F0ACF8DAE300210846FCF73F
:1046D000BCFB00210846FCF7B8FB00210846FCF7AC
:1046E000B4FB00210846FCF7B0FB0121A420FCF735
:1046F000ACFB142005F094F859466020FCF7A5FBAC
:1047000049460820FCF7A1FB4FF405713020FCF767
:104710009CFB43F215713120FCF797FB40F20461DA
:104720003220FCF792FB40F616613320FCF78DFB3C
:1047300042F211213420FCF788FB4FF4A8513520B8
:10474000FCF783FB48F207513620FCF77EFB41F271
:1047500007413720FCF779FB41F203413820FCF791
:1047600074FB20213920FCF770FB1A219020FCF704
:104770006CFB00211020FCF768FB07211120FCF7DF
:1047800064FB00211220FCF760FB00211320FCF7E2
:104790005CFB142005F044F84FF4E6611020FCF7B0
:1047A00054FB40F237111120FCF74FFB142005F0A9
:1047B00037F84FF4DC711220FCF747FB142005F0AA
:1047C0002FF84FF470611320FCF73FFB80212A2063
:1047D000FCF73BFB48212920FCF737FB142005F0B0
:1047E0001FF821460120FCF730FB41460220FCF770
:1047F0002CFB41F238010320FCF727FB4946082037
:10480000FCF723FB00210A20FCF71FFB00210C20F2
:10481000FCF71BFB00210D20FCF717FB30210E20BD
:10482000FCF713FB00215020FCF70FFBEF21512078
:10483000FCF70BFB00215220FCF707FB51465320ED
:10484000FCF703FB59466020FCF7FFFA01216120C9
:10485000FCF7FBFA00216A20FCF7F7FA11219020FF
:10486000FCF7F3FA4FF4C0619220FCF7EEFA40F245
:1048700002419320FCF7E9FA02219420FCF7E5FAC3
:10488000142004F0CDFF01210720FCF7DEFA1420EC
:1048900004F0C6FF61210720FCF7D7FA40F273113C
:1048A0000720FCF7D2FA00212020FCF7CEFA0021E5
:1048B0002120FCF7CAFA22210020FCF7C6FADFE229
:1048C00000210846FCF7C1FA00210846FCF7BDFAB2
:1048D000142004F0A5FF00210846FCF7B6FA0021D9
:1048E0000846FCF7B2FA00210846FCF7AEFA0021B0
:1048F0000846FCF7AAFA0121A420FCF7A6FA142026
:1049000004F08EFF59466020FCF79FFA40F606013E
:104910000820FCF79AFA40F2037319463020FCF79E
:1049200094FA01213120FCF790FA04213220FCF79F
:104930008CFA4FF481713320FCF787FA4FF44075FD
:1049400029463420FCF781FA40F203113520FCF7A8
:104950007CFA1F213620FCF778FA19463720FCF73D
:1049600074FA01213820FCF770FA04213920FCF791
:104970006CFA15219020FCF768FA4FF48261102040
:10498000FCF763FA40F247211120FCF75EFA4FF47E
:10499000DE711220FCF759FA4FF460611320FCF726
:1049A00054FA782004F03CFF21460120FCF74DFA30
:1049B0004FF400710220FCF748FA41F23001032065
:1049C000FCF743FA08210A20FCF73FFA00210C20EB
:1049D000FCF73BFA20210E20FCF737FA00210F20CC
:1049E000FCF733FA00212020FCF72FFA00212120C8
:1049F000FCF72BFA3D212A20FCF727FA142004F0BB
:104A00000FFF2D212920FCF720FA00215020FCF770
:104A10001CFA4DF2EF015120FCF717FA0021522049
:104A2000FCF713FA51465320FCF70FFA00216120DE
:104A3000FCF70BFA00216A20FCF707FA29469220BE
:104A4000FCF703FA05219320FCF7FFF92146072024
:104A5000FCF7FBF914E201210020FCF7F6F90A202B
:104A600004F0DEFE41F228611020FCF7EEF90E2181
:104A70001220FCF7EAF940F639211320FCF7E5F99A
:104A80000A2004F0CDFE40211120FCF7DEF9502170
:104A90001520FCF7DAF90A2004F0C2FE1E211220CC
:104AA000FCF7D3F90A2004F0BBFE4FF4B1511020FB
:104AB000FCF7CBF942F639211320FCF7C6F90A209E
:104AC00004F0AEFE21460120FCF7BFF94FF440711F
:104AD0000220FCF7BAF941F238010320FCF7B5F9DE
:104AE00049460820FCF7B1F908210A20FCF7ADF986
:104AF00000213020FCF7A9F940F202413120FCF7F7
:104B0000A4F94FF483713220FCF79FF940F203516E
:104B10003320FCF79AF94FF482713420FCF795F9B1
:104B200040F201313520FCF790F929463620FCF798
:104B30008CF940F205313720FCF787F94FF4027108
:104B40003820FCF782F940F60B713920FCF77DF92B
:104B500002214120FCF779F959466020FCF775F9EC
:104B600001216120FCF771F94FF404719020FCF7EA
:104B70006CF94FF485719220FCF767F904219320BA
:104B8000FCF763F92146A020FCF75FF9012107201B
:104B9000FCF75BF921210720FCF757F923210720B7
:104BA000FCF753F933210720FCF74FF940F233119A
:104BB0000720FCF74AF90021A020FCF746F95FE145
:104BC00030211520FCF741F910219A20FCF73DF91E
:104BD00020211120FCF739F943F228411020FCF77D
:104BE00034F902211220FCF730F941F23801132088
:104BF000FCF72BF9282004F013FE12210846FCF7DD
:104C000024F9282004F00CFE43F220411020FCF788
:104C10001CF943F238011320FCF717F9462004F081
:104C2000FFFD00213020FCF710F940F20241312055
:104C3000FCF70BF940F207313220FCF706F94FF48C
:104C400041713320FCF701F904213420FCF7FDF811
:104C500040F201413520FCF7F8F829463620FCF7F0
:104C6000F4F840F205313720FCF7EFF84FF4C26357
:104C700019463820FCF7E9F819463920FCF7E5F821
:104C800021460120FCF7E1F84FF440710220FCF7C7
:104C9000DCF841F230010320FCF7D7F840F60801B8
:104CA0000820FCF7D2F808210A20FCF7CEF8594674
:104CB0006020FCF7CAF801216120FCF7C6F84FF428
:104CC0009F719020FCF7C1F821469220FCF7BDF8B7
:104CD00021469320FCF7B9F84FF44051A020FCF78F
:104CE000B4F81021A320FCF7B0F801210720FCF74D
:104CF000ACF821210720FCF7A8F823210720FCF7B6
:104D0000A4F833210720FCF7A0F840F23311072064
:104D1000FCF79BF8B4E0E220FCF788F82320FCF7CE
:104D200088F80220FCF785F80420FCF782F864205C
:104D300004F05FFDE020FCF779F80120FCF779F83A
:104D40000A2004F06DFDE020FCF770F80320FCF76A
:104D500070F80C2004F064FD0120FCF767F80A20CD
:104D600004F05EFDE620FCF761F80320FCF761F833
:104D7000FF20FCF75EF8FF20FCF75BF8B020FCF7A3
:104D800055F82020FCF755F80020FCF752F80320D6
:104D9000FCF74FF840F21F30FCF74BF80120FCF70E
:104DA00048F840F2DF10FCF744F80020FCF741F827
:104DB000B420FCF73BF80420FCF73BF840F21F401E
:104DC000FCF737F80020FCF734F8D220FCF731F874
:104DD0000020FCF72EF80020FCF72BF80020FCF751
:104DE00028F80020FCF725F8B620FCF71FF8022071
:104DF000FCF71FF84FF40370FCF71BF80020FCF7DA
:104E000018F82220FCF715F80920FCF712F800200A
:104E1000FCF70FF80020FCF70CF8F020FCF706F880
:104E20000320FCF706F82920FCF700F8D020FBF758
:104E3000FDFF0020FBF7FDFFBE20FBF7F7FF05207D
:104E4000FBF7F7FFFE20FBF7F4FF0120FBF7F1FF74
:104E5000FF20FBF7EEFF0020FBF7EBFFB820FBF78E
:104E6000E5FF0F20FBF7E5FF0120FBF7E2FFBA208B
:104E7000FBF7DCFF0120FBF7DCFF6420FCF72FFBD6
:104E80000020FCF74EFBF94807603046FCF7E1FCD8
:104E90001FB0BDE8F08F2DE9F8438146089E984683
:104EA000F34DA888A0F5D043043B02D1A87901288E
:104EB00006D0A2EB0900401C87B20C46ED4D2BE05A
:104EC0000C462888811A491E89B24246A0EB090087
:104ED000401E83B20020A8712A276F814FF02B0853
:104EE000A5F80C8020460096FFF7D5FF0120A87199
:104EF000A5F80A80AF81BDE8F88321464846FBF754
:104F0000C8FFFBF7B0FF002002E02E80401C80B2FB
:104F1000B842FAD3641CA4B24445EED9EBE72DE9BC
:104F2000F0478246DDF820800E46A2EB0A00401CC6
:104F300085B2981B401C87B20024DFF8389314E038
:104F4000301981B25046FBF7A4FFFBF78CFF00221B
:104F500007E004FB052038F81000A9F80000521CF7
:104F600092B2AA42F5D3641CA4B2BC42E8D3BDE815
:104F7000F0872DE9FE4F00250026171AA3EB010844
:104F800081468A46681E002F03DD4FF00101019122
:104F900007E003D14FF00001019102E00190C7F159
:104FA0000007B8F1000F03DD4FF00100009007E0AB
:104FB00003D14FF00000009002E00090C8F100081B
:104FC000474501DD3C4600E044464FF0000B601CC5
:104FD000029015E01FFA8AF11FFA89F0FCF7D7F961
:104FE0003D444644A54202DD2D1B01988144A64262
:104FF00002DD361B009882440BF1010B1FFA8BFB7C
:1050000002988345E6DDBDE8FE8FF0B505460E4605
:1050100014461F463346224631462846FFF7A9FF6D
:105020003B462A4631462846FFF7A3FF3B46224629
:1050300039462846FFF79DFF3B462246314620462B
:10504000BDE8F04095E72DE9FC4F0746884600246F
:1050500015460320A0EB42064BE0A8EB050081B209
:1050600007EB040A01901FFA8AF0FCF790F9A8EB0D
:10507000040081B207EB050900901FFA89F0FCF7E4
:1050800086F908EB040B1FFA8BF11FFA89F0FCF785
:105090007EF908EB05091FFA89F11FFA8AF0FCF77F
:1050A00076F91FFA89F1A7EB04091FFA89F0FCF7DA
:1050B0006EF9A7EB050A1FFA8BF11FFA8AF0FCF7CD
:1050C00066F9019881B21FFA89F0FCF760F900983F
:1050D00081B21FFA8AF0FCF75AF9641C002E03DA39
:1050E00006EB8406B61D04E0601B06EB80060A365C
:1050F0006D1EAC42B1DDBDE8FC8F2DE9F84F824654
:105100000C461F461FFA84FB780701D0012000E0FF
:10511000002000EBD70079084843C0B20090203A45
:1051200002F0FF09002647E00C2F14D0102F19D0F1
:10513000182F44D1504909EBC90001EB8000855D6F
:105140004FF00008280612D54C48A1B202885046FC
:10515000FCF727F912E04A4909EB490001EB80000E
:10516000855DEDE7474800EB0910855DE8E70A98A3
:1051700020B9A1B200225046FCF713F96806050ECB
:10518000641C3B484088A04219D9A4EB0B00B842EC
:1051900009D15C460AF1010A1FFA8AFA34480088EC
:1051A00050450CD906E008F1010808F0FF08B8F1F5
:1051B000080FC7D3761CF6B200988642B4D3BDE878
:1051C000F88F0346012000E05843491EC9B2FBD2C4
:1051D00070472DE9FF4F81B08046DDF838B0924628
:1051E0001D4600260024A1464FEA5B071FE0281B4E
:1051F000401EC1B20A20FFF7E4FFBAFBF0F00A211B
:10520000B0FBF1F201FB120026B9691E8C4201DAF3
:1052100088B101263030C2B207FB048080B25B4601
:10522000CDF800900299FFF768FF641CE4B2AC422D
:10523000DDD305B02DE607FB048080B25B4620225B
:10524000CDF800900299FFF758FFEEE72DE9FF4FE8
:1052500081B08046DDF83CA093461F464FF0000920
:1052600000240E980AF0010546082FE080812142B3
:10527000B00E00200008006CA2E300085E000020D1
:105280003ED90008B2DD0008381B401EC1B20A201A
:10529000FFF797FFBBFBF0F00A21B0FBF1F201FB37
:1052A0001200B9F1000F05D1791E8C4202DA80B1EB
:1052B0004FF001093030C2B206FB048080B2009585
:1052C0000E9B0299FFF719FF641CE4B2BC42DBD3CA
:1052D000AFE75FEA0A6009D506FB048080B200955B
:1052E00030220E9B0299FFF708FFEDE706FB0480D2
:1052F00080B2009520220E9B0299FFF7FEFEE3E7A5
:105300002DE9F8410546884616461C46002709E067
:105310003346414628460097FFF7EFFE05EB56005F
:1053200085B2641C2278A2F120005E28F0D9BDE885
:10533000F8812DE9F84F0446DDE90A760D4604F0C0
:10534000FF0810191FFA80F958191FFA80FA4FF058
:10535000000B11E04C4502D34446E81985B255458F
:105360000FD23B4629462046CDF800B0FFF7C5FED8
:1053700004EB570084B2761C3278A2F120005E283C
:10538000E8D91CE72DE9F04F0446DDF824B00D46BE
:1053900091469A4620231A4629462046FCF75EF994
:1053A00029462046FBF775FDFBF75DFD0027554BB1
:1053B00007EB470000EBC71099F80020195C9142F9
:1053C00021D100EB030899F8011098F801008842F8
:1053D00019D100264FF6FF7208EB0600C5780024AD
:1053E000280604D51FFA8AF0FBF723FD03E01FFA15
:1053F0008BF0FBF71EFD02EA4505641C082CEFD379
:10540000761C802EE8D37F1C282FD1D341E52DE9CF
:10541000F8430646DDF820800F46154699460024DD
:105420000CE006EB0410B9B280B24B462A46CDF828
:105430000080FFF7A7FFAD1CA41CE4B22878002869
:10544000EFD158E52DE9F04F0446DDF824B00D46C4
:1054500091469A4610231A4629462046FCF7FEF844
:1054600029462046FBF715FDFBF7FDFC0027264BE0
:10547000C7EBC70000EB800099F80020195C91424F
:1054800021D100EB030899F8011098F80100884237
:1054900019D100264FF6FF7208EB0600C5780024EC
:1054A000280604D51FFA8AF0FBF7C3FC03E01FFAB5
:1054B0008BF0FBF7BEFC02EA4505641C082CEFD319
:1054C000761C202EE8D37F1C402FD1D3E1E42DE9B8
:1054D000F8430646DDF820800F461546994600241D
:1054E0000CE006EBC400B9B280B24B462A46CDF8B8
:1054F0000080FFF7A7FFAD1CA41CE4B228780028A9
:10550000EFD1F8E4600000200D08002010B586B04F
:105510000121082004F075FF0121880304F07CFFBD
:105520004FF46040ADF8140018208DF817000320E8
:105530008DF8160005A92E4804F05DFD0020ADF899
:1055400000004FF48271ADF80210ADF80400ADF820
:1055500006000121ADF808104902ADF80A10082133
:10556000ADF80C10ADF80E000720ADF81000214C7E
:105570006946204605F0ACFF0121204606F02DF8D3
:1055800006B010BD01461B48028822F03802028096
:1055900002880A430280012106F01FB870B5054653
:1055A0000024144E05E0641CE4B2C82C01D900208C
:1055B00070BD0221304606F08CF80028F3D0294651
:1055C0003546284606F039F8002405E0641CE4B2AC
:1055D000C82C01D9002070BD0121284606F079F8B9
:1055E0000028F3D0284606F02AF8C0B270BD0000AB
:1055F000000C01400038004004F0FBB82DE9F84FE2
:105600000121102004F0FDFE10208DF803004FF062
:1056100003098DF80290C401ADF80040DFF88CA4B6
:105620006946504604F0E7FC6510ADF80050694645
:10563000504604F0E0FC6600ADF800606946504654
:1056400004F0D9FCE710ADF800706946504604F04C
:10565000D2FC4FF40058ADF800806946504604F083
:10566000CAFC04208DF803008DF80290C001ADF84B
:1056700000006946504604F0BEFC0820ADF800006A
:105680006946504604F0B7FC3946504604F022FD06
:105690004146504604F01EFD3146504604F01AFDC6
:1056A0002146504604F018FD2946504604F012FDEC
:1056B000BDE8F88F0020401C80B20A28FBD3704759
:1056C0002DE9F0410546FFF7F5FFFFF7F3FF002452
:1056D000F64E4FF48068F714280604D5414630464C
:1056E00004F0F8FC03E04146304604F0F5FC39468E
:1056F000304604F0EFFCFFF7DDFF6806050E394683
:10570000304604F0E9FCFFF7D5FF641CE4B2082C36
:10571000E2D3BDE8F08170B50024E44EE44D0821E9
:10572000304604F0C3FC002802D0641CAC42F6D31F
:1057300070BD052060E73EB50820019000248DF87B
:1057400008400C208DF809008DF80A4001A805F0EA
:10575000FBFF09208DF800008DF8014003208DF833
:1057600002008DF80340684604F029F93EBD2DE99A
:10577000F04704460D46CF4804704570FFF7DBFF45
:10578000FFF7D7FFFFF7C7FF04260827CA48455D84
:10579000DFF818934FF480584146484604F09CFCCB
:1057A0005020FFF78DFF0320FFF78AFF3046FFF7F9
:1057B00087FF3846FFF784FF2046FFF781FF284622
:1057C000FFF77EFF4146484604F084FCBDE8F04701
:1057D000322011E70A200FE72DE9F0410024FFF7FE
:1057E00069FF0025B14F4FF400664FF40078314651
:1057F000384604F06FFCFFF75DFF6006040E31468B
:10580000384604F069FC4146384604F04FFC012854
:1058100001D1641CE4B2FFF74DFF6D1CEDB2082D01
:10582000E5D3204675E72DE9F04104460F469F4E2B
:105830004FF480552946304604F04EFC44F05000A9
:10584000FFF73EFF0020FFF73BFF3846FFF738FF2A
:1058500029463046BDE8F04104F03CBC70B5044632
:10586000924E4FF480552946304604F035FC44F002
:105870001000FFF725FF0020FFF722FFFFF7AAFF28
:10588000FFF7AAFF04462946304604F023FC2046D1
:1058900070BD70B50646854D4FF4805421462846AC
:1058A00004F01AFC3046FFF70BFF21462846BDE8FE
:1058B000704004F00FBC10B5FFF72DFF0020FFF77C
:1058C000CDFF000910BD072805D8082141EA0010C6
:1058D000C1B20120A7E77047002808D0012809D0ED
:1058E00002280AD003280BD1672101209BE7012160
:1058F000084698E72321012095E74521012092E7FA
:10590000704770B5694E4FF480552946304604F013
:10591000E3FB0120FFF7D4FEFFF75CFFFFF75CFF1E
:105920000404FFF759FF04EB0024FFF755FF04447C
:105930002946304604F0CEFB200201D5A4F1807444
:10594000204670BD3EB55B4981F82500002481F8F2
:105950002440002001EB80025460401CC0B20828A3
:10596000F8D30121084604F04CFD0321022004F085
:10597000FEFB082001908DF808400C208DF80900EE
:1059800001248DF80A4001A805F0DEFE09208DF8FB
:1059900000008DF8014003208DF802008DF80340CF
:1059A000684604F00CF83EBD072801D90020704776
:1059B000012181F310883F4901EB800040680021FC
:1059C00081F31088704770B53A4C0025204694F852
:1059D000251090F82400002926D0FFF77DFF052030
:1059E000FFF70AFEFC20FFF754FF0520FFF704FE37
:1059F0000020FFF74EFF1920FFF7FEFD94F824006A
:105A0000C8B3FFF77EFF94F82410491E04EB810110
:105A1000486094F82400401CC0B284F82400042894
:105A200001D384F8245070BDFFF74DFF0520FFF728
:105A3000E3FDFC20FFF72DFF0520FFF7DDFD002033
:105A4000FFF727FF1920FFF7D7FD94F8240098B13E
:105A5000FFF757FF94F82410491E04EB81014860BA
:105A600094F82400401CC0B284F824000828DAD33B
:105A700084F8245070BD03E0FFF743FF2062EFE796
:105A8000FFF73FFF2061C4E710B5082005F0ADFE29
:105A9000002809D0082005F0B6FEFFF794FFBDE806
:105AA0001040082005F0AFBE10BD000000100140FE
:105AB000005A6202C00E0020FEF00008FFF76EBD23
:105AC0002DE9F04105460E461446FE4F0020C7F86A
:105AD000B001642003F08DFE2846FFF7EFFF64203D
